S00B00005350492E737265632D
S11300000C942A000C943F000C943F000C943F0085
S11300100C943F000C943F000C943F000C943F0060
S11300200C943F000C943F000C943F000C943F0050
S11300300C943F000C943F000C943F000C943F0040
S11300400C943F000C943F000C943F000C943F0030
S11300500C943F0011241FBECFE5D4E0DEBFCDBF1A
S113006011E0A0E6B0E0EEE5F1E002C005900D92EB
S1130070A439B107D9F70E9448000C94AD000C9440
S1130080000088B3806688BB8DB181658DB9089501
S11300900E9441000E94630080E690E00E94780084
S11300A0FBCF8FB9779BFECF0895CF93C62F98B31C
S11300B018BA0E9451008C2F0E94510088B38062AC
S11300C088BBCF91089560E089E00E94550063E009
S11300D08AE00E94550067E08BE00E94550061E0D1
S11300E08CE00E94550060E08FE00E945500089566
S11300F00F931F93CF93DF93EC018881882341F101
S113010001E010E009301105C4F4888190E0C7973C
S1130110980121503109880F991F880F991F880F62
S1130120991F8C599F4FFC01E20FF31F6081802FB0
S11301300E9455000F5F1F4FE5CF21962FEF84E3F8
S11301409CE0215080409040E1F700C00000D5CFF2
S1110150DF91CF911F910F910895F894FFCF86
S113015E616263003C4242424242423C10305010C3
S113016E1010107C7E02027E4040407E3E02023E13
S113017E02023E0008182848FE0808083C20203CCD
S113018E04043C003C20203C24243C003E22040871
S113019E08080808003E22223E22223E3E22223E2B
S11301AE0202023E182442427E4242423C22223C39
S11301BE22223C003C4040404040403C7C222222D3
S11301CE2222227C7C40407C4040407C7C40407C0F
S11301DE404040403C4040404C44443C4444447CB9
S11301EE444444447C1010101010107C3C08080841
S11301FE080848300024283020302824404040404D
S113020E4040407C81C3A599818181810042625224
S113021E4A4642003C4242424242423C3C22222254
S113022E3C2020201C2222222226221D3C22222275
S113023E3C242221001E20203E02023C003E0808DF
S113024E08080808424242424242221C42424242AA
S113025E4242241800494949492A1C0000412214EB
S113026E081422414122140808080808007F0204D9
S113027E0810207F000000000000000000000000B5
S107028E0000000068
S9030000FC
